:020000040800F2
:1000000000000120B5260008252600082726000844
:10001000292600082B2600082D26000800000000D5
:100020000000000000000000000000002F26000873
:10003000312600080000000033260008352600089D
:1000400005270008052700080527000805270008E0
:1000500005270008052700080527000805270008D0
:1000600005270008052700080527000805270008C0
:1000700005270008052700080527000805270008B0
:1000800005270008052700080527000805270008A0
:100090000527000805270008052700080527000890
:1000A0000527000805270008052700080527000880
:1000B00005270008000000000000000005270008D8
:1000C00005270008000000000000000005270008C8
:1000D00000000000052700080527000800000000B8
:1000E00005270008052700080000000000000000A8
:1000F0000000000000000000000000000000000000
:1001000000000000000000000000000005270008BB
:100110000000000000000000052700080527000877
:1001200005270008052700080527000805270008FF
:10013000052700080000000000000000000000008B
:1001400005270008052700080527000805270008DF
:1001500005270008052700080527000805270008CF
:1001600005270008052700080527000800000000F3
:100170000527000805270008000000000000000017
:0C018000052700080527000805270008D7
:1001900010B5054C237833B9044B13B10448AFF3C1
:1001A00000800123237010BD7000002000000000BB
:1001B000A82F000808B5034B1BB103490348AFF350
:1001C000008008BD0000000074000020A82F000877
:1001D000034613F8012B002AFBD1181A0138704787
:1001E00001F0FF01102A2BDB10F0070F08D010F8E8
:1001F000013B013A8B422DD010F0070F42B3F6D1EC
:10020000F0B441EA012141EA014122F007047FF004
:1002100000070023F0E80256083C85EA010586EA5B
:10022000010685FA47F5A3FA87F586FA47F6A5FA97
:1002300087F68EB9EED1F0BC01F0FF0102F00702A3
:1002400032B110F8013B013A83EA010313B1F8D14E
:100250000020704701387047002D06BF354603382F
:10026000073815F0010F07D1013015F4807F02BF68
:10027000013015F4C03F0130F0BC0138704700BFB9
:1002800053B94AB9002908BF00281CBF4FF0FF31FD
:100290004FF0FF3000F07AB9ADF1080C6DE904CEF3
:1002A00000F006F8DDF804E0DDE9022304B0704751
:1002B0002DE9F0478C460D460446089E002B51D18F
:1002C0008A4217466DD9B2FA82FEBEF1000F0BD0FA
:1002D000CEF1200C01FA0EF520FA0CFC02FA0EF712
:1002E0004CEA050C00FA0EF44FEA174A250CBCFB49
:1002F000FAF81FFA87F90AFB18CC45EA0C4508FB07
:1003000009F3AB420AD9ED1908F1FF3280F02381DD
:10031000AB4240F22081A8F102083D44ED1AA4B29C
:10032000B5FBFAF00AFB105544EA054400FB09F955
:10033000A14509D9E41900F1FF3380F00A81A145F4
:1003400040F2078102383C44A4EB090440EA08402B
:100350000021002E61D024FA0EF400233460736073
:10036000BDE8F0878B4207D9002E54D0002186E8E3
:1003700021000846BDE8F087B3FA83F1002940F078
:100380008E80AB4202D3824200F2FA80841A65EB7F
:1003900003050120AC46002E3FD086E81010BDE8D2
:1003A000F08712B90127B7FBF2F7B7FA87FEBEF163
:1003B000000F34D1EB1B3A0C1FFA87FC0121B3FB71
:1003C000F2F8250C02FB183345EA03450CFB08F351
:1003D000AB4207D9ED1908F1FF3002D2AB4200F26F
:1003E000D1808046ED1AA3B2B5FBF2F002FB1055A6
:1003F00043EA05440CFB00FCA44507D9E41900F1CD
:10040000FF3302D2A44500F2B8801846A4EB0C04D6
:1004100040EA08409DE731463046BDE8F087CEF11E
:10042000200405FA0EF307FA0EF720FA04F83A0C46
:1004300025FA04F448EA0308B4FBF2F14FEA184540
:1004400002FB11441FFA87FC45EA044501FB0CF34B
:10045000AB4200FA0EF409D9ED1901F1FF3080F03A
:100460008A80AB4240F2878002393D44EB1A1FFA82
:1004700088F5B3FBF2F002FB103345EA034500FBBD
:100480000CF3AB4207D9ED1900F1FF386FD2AB4244
:100490006DD902383D44EB1A40EA01418FE7C1F1C2
:1004A000200722FA07F88B4005FA01F448EA030313
:1004B00020FA07FE4FEA134CFD404EEA040EB5FB4E
:1004C000FCF94FEA1E440CFB19551FFA83F844EA65
:1004D000054509FB08F4AC4202FA01F200FA01FA00
:1004E00008D9ED1809F1FF3043D2AC4241D9A9F146
:1004F00002091D442D1B1FFA8EFEB5FBFCF00CFB00
:1005000010554EEA054400FB08F8A04507D9E41849
:1005100000F1FF3529D2A04527D902381C4440EA12
:100520000940A4EB0804A0FB02894C45C6464D4691
:1005300015D312D056B1BAEB0E0364EB050404FADE
:1005400007F7CB401F43CC40376074600021BDE803
:10055000F0871846F8E69046E0E6C245EAD2B8EBE6
:10056000020E69EB03050138E4E72846D7E7404669
:1005700091E78146BEE7014678E702383C4445E70B
:10058000084608E7A8F102083D442BE7704700BF82
:1005900038B50A4B054618684FF47A73B0FBF3F090
:1005A00000F0C8FC044638B9024629464FF0FF3037
:1005B00000F08CFC204638BD012038BD080000202A
:1005C00010B5032000F070FC0020FFF7E1FF0446A7
:1005D00018B901F07DFF204610BD0124FBE70000A3
:1005E000024A136801331360704700BF9C0000206B
:1005F000014B1868704700BF9C00002038B50446C6
:10060000FFF7F6FF631C054618BF0134FFF7F0FF44
:10061000401B8442FAD838BD30B5CC0D04F0040438
:100620001430C1F30451072303FA01F5235802FAE9
:1006300001F123EA05031943215030BD8068C0F35E
:100640008000704737B500230193044600286ED020
:10065000456D25B901F054FFA56584F85050206818
:100660008368990065D48368DA0069D58368DB0004
:1006700074D50021FFF7E2FF636D13F0100F636D77
:1006800052D1002850D123F4817343F00203206833
:1006900063658368DD076BD5E568636B94F820209C
:1006A0002B43A5682B43657E012A43EA453343EA81
:1006B000024302BF626A02F1FF3243EA4243A26A86
:1006C00022B1E56A02F470722A431343C568404AB6
:1006D0002A401343C360FFF7B1FF23689A681207EB
:1006E00052D52269012A05BF186BE2691A6B02F123
:1006F000FF3206BF20F00F00024322F00F021A6300
:10070000636D23F0030343F001036365084603B000
:1007100030BD019B013B0193019B002BF9D1A5E763
:100720001A6922F0010251E043F0100363650121D0
:10073000ECE7836823F0204323F03F03836092E7D4
:100740008368244A23F0104323F03F0343F080538F
:100750008360214B1B68B3FBF2F3DCE7636D43F06E
:1007600010036365A36D43F00103A365012181E7D5
:100770001A4B9B68DB078FD4194A6568936823F48A
:100780007C132B43936087E70028AAD1D86894F89C
:100790003020257E520020F4804042EA853220F04D
:1007A00002000243DA6094F83820012AB8D1256C9F
:1007B000E26B18692A43656C42F001022A43A56C7A
:1007C00020F4FF602A4320F0040002431A6188E706
:1007D00007C0F0FF400D0300080000200000045097
:1007E00000030450F8B54569082D04460E460AD0AA
:1007F0000368DB68DD0705D5436D43F020034365DF
:100800000120F8BD0425FFF7F3FE074623681A68A8
:1008100015421DD0626D42F400726265DA6812F40E
:10082000406F0FD1627E6AB91A6811070AD5626DEE
:1008300022F480726265626DD2045EBF626D42F026
:1008400001026265082DD86814D11D600020F8BD32
:10085000701CDCD0FFF7CCFEC01B864201D3002EFB
:10086000D4D1636D43F004036365002384F85030F2
:100870000320F8BD10F48040E8D10C221A60F8BDC6
:100880000368186C70470000F7B50023019390F8D7
:100890005030012B05460C4600F05081012380F8B2
:1008A00050300068FFF7CAFE002840F041814B68D5
:1008B000052B08D8023B032B38D8DFE803F00230C1
:1008C00032340C236360616828688E0906F00C06D8
:1008D00000F1300701F01F011F2303FA01F2F35961
:1008E00023EA02032268C2F384628A401343F3516D
:1008F000FFF7A4FE2B689A68160740F1218128684B
:100900008368D90740F141812168C54B194240F005
:10091000C1800020002385F8503003B0F0BD1223C1
:10092000D0E71823CEE74FF48073CBE70623C9E75F
:10093000DEF86010C3F31200C1F384670EF16406A1
:1009400000283AD1C3F38460874240F0558121F0FA
:100950000041CEF860102368DEF86410C3F312077C
:10096000C1F384609FBBC3F38463834240F0498139
:1009700021F00041316023689168C3F3120702F14E
:100980000806C1F3846077BBC3F38463834240F0FD
:100990003F8121F000413160236802F10C00D268F0
:1009A000C3F31206C2F384614EBBC3F384638B426C
:1009B00004BF22F000420260A1E793FAA3F0B0FA6C
:1009C00080F08742C3D0DEF86410C1F3846093FAEC
:1009D000A3F3B3FA83F38342CAD09168236802F188
:1009E0000806C1F3846093FAA3F3B3FA83F3834256
:1009F000CFD002F10C00D2682368C2F3846193FA6D
:100A0000A3F3B3FA83F3D2E793FAA3F2B2FA82F232
:100A1000013202F01F02092A10D993FAA3F2B2FAA6
:100A200082F20132920602F0F84693FAA3F1B1FA8B
:100A300081F1013101F01F02012117E093FAA3F6C1
:100A4000B6FA86F60136B60606F0F84693FAA3F132
:100A5000B1FA81F1013101F01F020121BAE093FAEC
:100A6000A3F1B1FA81F1BCE006F0F846914041EA09
:100A7000060257B99B0E013303F01F0303EB43013A
:100A80001E39090541F00071B1E093FAA3F3B3FAFE
:100A900083F3F0E7634B644A9868914200F0E07496
:100AA0001DD102023FF535AF2968604A91427FF4BB
:100AB00030AF9A6822F0E072224342F400029A605A
:100AC0005B4B5C4A1B68B3FBF2F20C23534301936C
:100AD000019B002B3FF41DAF019B013BF7E7564AFA
:100AE000914211D110F080707FF413AF2968A2F108
:100AF000F74291427FF40DAF9A6822F0E0722243F0
:100B000042F080729A6005E74C4A91427FF401AF4F
:100B100010F480007FF4FDAE2968444A91427FF4CE
:100B2000F8AE9A6822F0E072224342F48002E9E7CC
:100B30006A6D42F020026A651846EBE60220ECE698
:100B400000287FF4DCAEA26821681846FFF764FD38
:100B50002669D5F800E02368DEF80C10042E0EF1AB
:100B600060023FF4E5AEC1F3C1014800616903F0E2
:100B7000F843814043F00043194352F82600304BBC
:100B80000340194342F82610B9E6E66823682D4A67
:100B9000D0F8B01006F0180EC3F3120722FA0EF2C6
:100BA0001A4021EA07010A43C0F8B020264A9642BB
:100BB0007FF4AAAE002F7FF427AF9E0E013606F019
:100BC0001F02092A4FF001014FEA86663FF64CAF3B
:100BD00006F0F846914041EA0602002F7FF43FAF4D
:100BE000990E013101F01F0101EB4101090511438B
:100BF000A268FFF711FD87E6DEF86410C1F3846098
:100C0000B1E69168236802F10806C1F38460BBE68F
:100C100002F10C00D2682368C2F38461C5E600BF0C
:100C20000000088000030450000052C70000045078
:100C300008000020400D0300000084CB010000806C
:100C400000F0FF03FFFF070000007F4070B504467F
:100C50000068FFF7F3FC23689A68150742D5DA6845
:100C6000920123D5208B40F2011290421ED1294AD5
:100C700019684E060ED540221A6001211846FFF76A
:100C8000DDFC18B1226893689D072ED501290FD18C
:100C9000042518E0013AEBD1636D43F0100363655E
:100CA000A36D43F00103A365012070BD0229E5D1C6
:100CB00022689368180721D4022903D00329E7D1B9
:100CC0000C2500E00825FFF793FC064623689B6887
:100CD0001D4201D1002070BDFFF78AFC801B052852
:100CE000F4D9D9E70028BAD1F4E7936823F0004398
:100CF00023F03F0343F010039360C7E793689B071B
:100D0000DAD4936823F0004323F03F0343F0200339
:100D10009360D1E7010040A30268936870B5044670
:100D2000D80701D5002070BD9168144B194214D129
:100D30009368134D2B4043F001039360FFF758FC79
:100D4000064622681368DB07ECD49368D9070ED5F2
:100D5000FFF74EFC801B0228F3D9636D43F01003AC
:100D60006365A36D43F00103A365012070BD936823
:100D70002B4043F001039360EAE700BF3F0000808F
:100D8000C0FFFF7F38B504460068FFF757FC0546F3
:100D9000002836D194F85030012B32D0012384F84A
:100DA00050302046FFF7B8FF40BB636D23F47063FB
:100DB00023F0010343F480736365636DDA0448BF75
:100DC000A36D226852BFA06523F00603A3651C2310
:100DD0001360002384F85030D3689B0141BF636DDA
:100DE00023F4405343F480536365936823F0004336
:100DF00023F03F0343F00403936038BD84F8505060
:100E000038BD022038BD026838B593689168C907BB
:100E1000044603F0020301D4002038BD002BFBD1AF
:100E2000936803F00D03012B15D1936823F0004361
:100E300023F03F0343F00203936003231360FFF7A3
:100E4000D7FB054623689B68DB07E5D5FFF7D0FB9A
:100E5000401B0228F6D9636D43F010036365A36D50
:100E600043F00103A365012038BD90F85030012BF9
:100E700010B5044616D0012380F850300321FFF747
:100E8000E5FE58B92046FFF7BEFF38B9636D23F47D
:100E9000885323F0010343F001036365002384F8C2
:100EA000503010BD022010BD074AD36823F4E06320
:100EB0001B041B0C43F0BF63000243F4003300F437
:100EC000E0600343D360704700ED00E0174B30B59E
:100ED000DC68C4F30224C4F10703251D042B28BFDA
:100EE0000423062D4FF0010505FA03F303F1FF3348
:100EF0008CBF033C00241940A14005FA04F4013CD6
:100F00002240002842EA01024FEA0212AFBF00F17C
:100F1000604000F00F00064BD2B2A5BF00F5614063
:100F2000D2B21A5480F8002330BD00BF00ED00E0BB
:100F300014ED00E00138B0F1807F0AD2064B074A79
:100F40005860F02182F823100020072298601A6070
:100F500070470120704700BF10E000E000ED00E0A6
:100F60002DE9F04F85B00B68DFF85881534A0193A3
:100F70004FF00F090023019CDC4002D105B0BDE811
:100F8000F08F012404FA03FA019C14EA0A0500F028
:100F90008F804C6824F0100BBBF1020F11D1DF08D9
:100FA00000EB870703F0070E3E6A4FEA8E0E09FA40
:100FB0000EFC26EA0C0C0E6906FA0EF646EA0C0642
:100FC0003E624FEA430C0327066807FA0CF7FF431B
:100FD00004F0030E3E400EFA0CFE0BF1FF3B4EEA0E
:100FE0000606BBF1010F066011D8866806EA070BFA
:100FF000CE6806FA0CFE4EEA0B068660466826EAC4
:101000000A0AC4F300169E4046EA0A064660C6680D
:1010100037408E6806FA0CF63743E600C76047D5BE
:10102000D8F8606046F00106C8F86060D8F86060E3
:1010300023F0030707F1804706F0010607F5803724
:10104000039603F0030E039EBE684FEA8E0E09FA64
:101050000EFCB0F1904F26EA0C0C2BD0184EB0428B
:101060002AD006F58066B04214BF0726022606FA8B
:101070000EF646EA0C06BE601668EF4314F4803F95
:101080000CBF3E402E431660566814F4003F0CBF60
:101090003E402E435660966814F4801F0CBF3E40BD
:1010A0002E439660D668A40254BF3E402E43D660BD
:1010B000013360E70026DAE70126D8E700040140A3
:1010C00000040048001002400AB18161704781624B
:1010D00070470000024A136843F48073136070473E
:1010E00000700040024B186800F4C060704700BFF9
:1010F00000700040174B1A68B0F5007F02F4C06220
:101100001CD1B2F5007F15D01A6822F4C06242F4F7
:1011100000721A60104A116832224A430F49B2FB2A
:10112000F1F2194601325869400500D522B94B69E0
:101130005B050DD400207047013AF4E7B2F5806FEB
:101140001FBF1A6822F4C06242F480621A60F1E79D
:1011500003207047007000400800002040420F004C
:1011600037B51E4DAB6DDA00044618D5FFF7BAFF50
:10117000B0F5007F23D1802C29D9A02C8CBF022070
:101180000120174A136823F0070303431360136811
:1011900003F00703181A18BF012003B030BDAB6D70
:1011A00043F08053AB65AB6D03F080530193019B1B
:1011B000FFF798FFAB6D23F08053AB65D8E7802C29
:1011C00007D808D0A4F1700358425841D9E700204D
:1011D000D7E70320D5E70220D3E700BF0010024085
:1011E00000200240254B9A68D96812F00C0205D005
:1011F0000C2A15D101F00301012918D119682048E2
:10120000090755BFD3F894101968C1F30321C1F33E
:10121000031150F8210082B30C2A09D00020704736
:10122000042A29D0082A174818BF00207047002038
:10123000D968DA6801F00301C2F30212022902F14F
:10124000010205D0032912D0D968C1F3062103E0B9
:10125000D9680D48C1F30621DB68B0FBF2F0C3F397
:101260004163013348435B00B0FBF3F07047D9683A
:101270000448C1F30621EFE703487047001002401D
:10128000F42F000800127A000024F4002DE9F7433F
:10129000054608B9012046E0A84C0368A668E7683F
:1012A000DB0606F00C0607F0030772D51EB10C2E04
:1012B00051D1012F4FD12368980702D5AB69002B7C
:1012C000E8D02368286A190756BFD4F894302368F9
:1012D0001B0903F0F003834228D2FFF741FF0028E7
:1012E000D8D1236843F00803236023682A6A23F0D7
:1012F000F003134323606368EA6923F47F4343EAFE
:1013000002236360FFF76EFFA3688D4AC3F30313E4
:10131000D35C03F01F03D8408A4B18600020FFF70E
:1013200037F9002835D003B0BDE8F083236843F0D7
:1013300008032360236823F0F003034323606368FA
:10134000EA6923F47F4343EA02236360FFF708FF5F
:101350000028D7D09EE7AB69002B3AD0236843F032
:1013600001032360FFF744F9804623689A0728D5D4
:10137000236843F00803236023682A6A23F0F003FC
:10138000134323606368EA6923F47F4343EA02233B
:1013900063602B68D8072DD42B6899076BD42B6812
:1013A000180700F1A0802B68590700F1CD802B6849
:1013B000990600F13681AB6A002B40F05C81002079
:1013C000B1E7FFF715F9A0EB08000228CDD90320FB
:1013D000A9E7236823F001032360FFF709F980469A
:1013E00023689B07D5D5FFF703F9A0EB0800022877
:1013F000F6D9ECE7082E03D00C2E08D1032F06D126
:1014000023689A03C8D56B68002BC5D142E76B6887
:10141000B3F5803F10D1236843F480332360FFF796
:10142000E7F8804623689B03B6D4FFF7E1F8A0EB0A
:1014300008006428F6D9CAE7B3F5A02F04D12368C1
:1014400043F480232360E6E7226822F4803222609E
:10145000226822F480222260002BE0D1FFF7C8F836
:1014600080462368980397D5FFF7C2F8A0EB0800E1
:101470006428F6D9ABE7042E03D00C2E10D1022F2E
:101480000ED12368590503D5EB68002B3FF402AF5A
:1014900063682A6923F0F85343EA026363607EE7D6
:1014A000EB687BB1236843F480732360FFF7A0F8F7
:1014B000074623685A05EBD4FFF79AF8C01B0228A9
:1014C000F7D984E7236823F480732360FFF790F84B
:1014D000074623685B057FF562AFFFF789F8C01BFD
:1014E0000228F6D973E76B699BB1D4F8943043F0C6
:1014F0000103C4F89430FFF77BF80746D4F8943022
:101500009A073FF550AFFFF773F8C01B0228F5D9D3
:101510005DE7D4F8943023F00103C4F89430FFF76A
:1015200067F80746D4F894309B077FF53CAFFFF788
:101530005FF8C01B0228F5D949E700BF0010024040
:10154000DA2F000808000020A36DD80029D4A36D6D
:1015500043F08053A365A36D03F080530193019B77
:101560004FF00108714F3B68D9051DD5AB68012BC1
:101570002BD1D4F8903043F00103C4F89030FFF73A
:1015800037F841F288390746D4F890309B0742D5A6
:10159000B8F1000F3FF40BAFA36D23F08053A365A8
:1015A00005E74FF00008DDE73B6843F480733B60DC
:1015B000FFF71EF881463B68DA05D7D4FFF718F825
:1015C000A0EB09000228F6D901E7052B06D1D4F8D3
:1015D000903043F00403C4F89030CAE7D4F8902068
:1015E00022F00102C4F89020D4F8902022F00402E6
:1015F000C4F89020002BC2D1FEF7FAFF41F28839DF
:101600000746D4F890309807C2D5FEF7F1FFC01B0B
:101610004845F6D9DBE6FEF7EBFFC01B4845B3D9DA
:10162000D5E66B6A9BB1D4F8983043F00103C4F857
:101630009830FEF7DDFF0746D4F898309A073FF55B
:10164000BAAEFEF7D5FFC01B0228F5D9BFE6D4F825
:10165000983023F00103C4F89830FEF7C9FF07461D
:10166000D4F898309B077FF5A6AEFEF7C1FFC01BEC
:101670000228F5D9ABE60C2E3FF40CAE022B236802
:1016800023F08073236036D1FEF7B2FF064623684D
:1016900098012AD4AB6B6A6BDB0643EA0223EA6A41
:1016A00013432A6B013A43EA0213EA6B5208013AE8
:1016B00043EA42532A6C5208013A43EA4263E36028
:1016C000236843F080732360E36843F08073E36032
:1016D000FEF78EFF0546236899013FF570AEFEF7D1
:1016E00087FF401B0228F6D971E6FEF781FF801BB9
:1016F0000228CCD96BE623681A015EBFE36823F0A9
:101700000303E360E36823F0887323F48033E3602A
:10171000FEF76EFF054623689B017FF550AEFEF78E
:1017200067FF401B0228F6D951E600BF0070004059
:101730002DE9F0410E46044610B90120BDE8F081C4
:10174000404A136803F007038B4229D32368D90763
:1017500031D421688A075BD43A4A136803F007033F
:101760009E425DD311F0040F374D64D10B0706D5AF
:10177000AB68226923F4605343EAC203AB60FFF70E
:1017800031FDAB68314AC3F30313BDE8F041D35CCC
:1017900003F01F03D8402E4B18600020FEF7F8BE60
:1017A000136823F007030B431360136803F0070368
:1017B0009942C2D1CAE76268234D032A2B681BD124
:1017C00013F0007FB9D0AB6823F003031343AB6081
:1017D000FEF70EFF41F288380746AB68626803F0F7
:1017E0000C03B3EB820FB4D0FEF702FFC01B4045E1
:1017F000F3D90320BDE8F081022A02D113F4003F9F
:10180000E0E712B913F0020FDCE713F4806FD9E7B9
:101810000D4AA068936823F0F003034393609BE7AD
:10182000136823F0070333431360136803F00703BF
:101830009E4282D196E7AB68E26823F4E0631343EB
:10184000AB6093E70020024000100240DA2F00084E
:1018500008000020054B064A9B68C3F30223D35CB3
:10186000044A106803F01F03D8407047001002407C
:10187000EA2F000808000020054B064A9B68C3F3C6
:10188000C223D35C044A106803F01F03D84070479A
:1018900000100240EA2F000808000020F8B5444B71
:1018A000DA6812F0030F05460E461C46006839D070
:1018B000DA6802F0030282424BD1002A49D0DB6889
:1018C0006A68C3F302130133934242D1236823F0C1
:1018D00080632360FEF78CFE074623681A0141D41B
:1018E000AF68002E45D0012E4FD12269286922F41D
:1018F000C002400822F4FE42013842EA072242EACE
:1019000040522261236843F080632360FEF770FE3B
:10191000064623681B0145D52369AA691343236141
:101920000020F8BD022810D0032814D0012810D1BF
:101930001B689F07F5D5E3686A6823F07303013AD3
:10194000184340EA0210E060C0E71B6813F4806FA0
:10195000F1D10120F8BD1A689103ECD41B6813F48F
:10196000802FF5E7FEF744FEC01B0228B5D90320FF
:10197000F8BD2269E96822F07842C90641EA0723E6
:1019800022F4FE4213432361BCE72369686923F014
:10199000C063400823F4FE43013843EA072343EAC7
:1019A0004063F0E7FEF724FE801B0228B1D9DEE792
:1019B000001002402DE9F743056815F40065044660
:1019C0000ED0C16BB1F5000F53D0B1F5400F55D01B
:1019D00000295ED10430FFF761FF054600284DD095
:1019E00023689E0363D5934EB36DD80040F11681F2
:1019F0000027DFF84482D8F8003043F48073C8F839
:101A00000030FEF7F5FD8146D8F80030D90542D503
:101A1000002D47D1D6F8903013F4407314D0226DC6
:101A2000934211D0D6F89030D6F8902042F480320C
:101A3000C6F89020D6F8902023F4407322F4803228
:101A4000C6F89020C6F89030DA0709D5FEF7D0FD29
:101A500041F288398046D6F890309B0740F1C0802B
:101A6000D6F89030226D23F440731343C6F89030BB
:101A700018E0704AD36843F48033D3606D4AE16B59
:101A8000D2F8883023F440030B43C2F88830002595
:101A9000A6E70125A4E7FEF7ABFDA0EB09000228AD
:101AA000B2D903251FB1B36D23F08053B36523680A
:101AB000DF0708D55F49206AD1F8882022F00302A9
:101AC0000243C1F888209E0708D55A49606AD1F8B8
:101AD000882022F00C020243C1F88820980608D51D
:101AE0005449A06AD1F8882022F440620243C1F828
:101AF0008820990508D54F49606BD1F8882022F4D9
:101B000040220243C1F888205A0508D54949A06BF4
:101B1000D1F8882022F440120243C1F888205F06E1
:101B200008D54449E06AD1F8882022F440520243A3
:101B3000C1F88820DE0508D53E49206BD1F8882001
:101B400022F440320243C1F8882098040FD5394A64
:101B5000216CD2F8883023F040630B43B1F1006F61
:101B6000C2F8883044D1D36843F48013D36023682B
:101B700059030FD52F4A616CD2F8883023F04063A7
:101B80000B43B1F1006FC2F888303CD1D36843F405
:101B90008013D36023685A0412D52649A26CD1F869
:101BA000883023F040531343B2F1805FC1F888308E
:101BB00006D10221201DFFF771FE002818BF05463F
:101BC00023681B0408D51B4AE16CD2F8883023F047
:101BD00080430B43C2F88830284603B0BDE8F08349
:101BE000FEF706FDA0EB080048457FF634AF58E746
:101BF000B1F1806FBBD10121201DFFF74FFE0028FE
:101C000018BF0546B3E7B1F1806FC3D10121201D94
:101C1000FFF744FE002818BF0546BBE7B36D43F04D
:101C20008053B365B36D03F080530193019B01278B
:101C3000DFE600BF0010024000700040024A136857
:101C400043F0040313607047001002400268C1694A
:101C5000F8B5044683680069156803436069034367
:101C600082480B432840034313605368E06823F421
:101C70004053034353607E4BA0699A421CBF236AC2
:101C80001843936823F4306303439360794B9A427B
:101C900014D103F55843784AD3F8883003F003038E
:101CA000B1F5004FD35C40F0AA80082B20D8DFE8C4
:101CB00003F0778F921F9B1F1F1F9E006F4B9A424E
:101CC00007D103F5E6336E4AD3F8883003F00C03EE
:101CD000E6E7674B9A4240F0C28003F5C833D3F879
:101CE000885005F44065B5F5806F2AD006D815B345
:101CF00001220023236663661046F8BDB5F5006F28
:101D000006D0B5F5406FF3D14FF40040082501E04F
:101D10005C480225626802EB42038342E8D8B0EBDC
:101D2000023FE5D8082D38D8DFE805F00F37263711
:101D30002E3737373100FFF78DFD0028EAD10246F4
:101D4000D7E7FFF74FFA0425F7E7FFF783FD62684F
:101D50004FF4807156080027E1FB006700233046EE
:101D60003946FEF78DFA0022474BA0F540719942A3
:101D7000BED82368D860BCE744485508002300213A
:101D8000401941F10001ECE7FFF72CFADFE75008BA
:101D90000021002310F50000F3E701220020E3E713
:101DA000FFF758FD61684A0802EB4003B3FBF1F30B
:101DB0009BB20022A3F110004FF6EF71884297D832
:101DC00023F00F012068C3F342030B43C36090E785
:101DD000FFF752FDE6E76068430803F1F47303F58B
:101DE0009043B3FBF0F3E3E7FFF7FCF9DAE7606851
:101DF000430803F58033F4E701220023DAE7082BD8
:101E000030D8DFE803F005181B2F242F2F2F2700D1
:101E1000FFF720FD626800EB5203B3FBF2F39BB2C5
:101E20000022A3F110004FF6EF7188423FF660AF39
:101E30002168CB605DE7FFF71FFDEBE760684308B3
:101E400003F5740303F51053B3FBF0F3E7E7FFF773
:101E5000C9F9DFE76068430803F50043F4E7B1F52B
:101E6000004FC9D001220023DBE700BFF369FFEF79
:101E70000080004000380140C02F000800440040AE
:101E8000C42F00080024F400FFFC0F00000024F41D
:101E9000436ADA0710B506D50168846A4A6822F4F5
:101EA000003222434A609C0706D50168C46A4A682A
:101EB00022F4803222434A60590706D50168046B38
:101EC0004A6822F4802222434A601A0706D5016834
:101ED000446B4A6822F4004222434A60DC0606D57D
:101EE0000168846B8A6822F4805222438A609906D2
:101EF00006D50168C46B8A6822F4005222438A60C6
:101F00005A060FD50168046C4A6822F480122243F5
:101F1000B4F5801F4A6005D14A68446C22F4C002BF
:101F200022434A601B0606D50268816C536823F47D
:101F300000230B43536010BD2DE9F041069D04467C
:101F40000F46164698462168CA6937EA02030CBF55
:101F500001220022B24202D00020BDE8F0816B1CB9
:101F6000F2D09DB923681A6822F4D0721A609A6878
:101F700022F001029A60202384F8713084F87230D4
:101F8000002384F870300320BDE8F081FEF730FBB9
:101F9000A0EB08008542D6D2E4E72DE9F3411F46C5
:101FA00090F87130202B04460D4690464AD1002906
:101FB00046D0002A44D090F87030012B42D0012343
:101FC00080F8703000234367212380F87130FEF7DA
:101FD0000FFBA4F850800646A4F85280B4F85220B3
:101FE000009792B2334652B940212046FFF7A4FF32
:101FF00058B9202384F8713084F8700006E000227C
:1020000080212046FFF798FF18B1032002B0BDE8F9
:10201000F081A3682268B3F5805F0DD123695BB9B5
:1020200035F8023BC3F308031385B4F85230013B83
:102030009BB2A4F85230D1E72B7813850135F4E731
:102040000120E3E70220E1E773B504460026466776
:10205000FEF7CEFA23681B681A07054617D42368D3
:102060001B685B070AD56FF07E43009300222B4666
:102070004FF480012046FFF75FFFA0B92023002026
:1020800084F8713084F8700084F872300CE06FF0DE
:102090007E430093324603464FF400112046FFF77B
:1020A0004BFF0028DBD0032002B070BD10B5044602
:1020B00060B390F8713003F0FF021BB980F8702014
:1020C00000F04EFA2268242384F87130136823F05C
:1020D000010313602046FFF7B9FD012816D0636A9B
:1020E00013B12046FFF7D4FE23685A6822F49042C9
:1020F0005A609A6822F02A029A601A6842F0010235
:1021000020461A60BDE81040FFF79EBF012010BDB9
:102110002DE9FF472E4B93F800A02E4B93F800902B
:102120002D4B93F800802D4B1F782D4B0AEB0902A5
:102130001E7842443A4405469419FEF749F82B4666
:102140002844002283423ED1264B8DF803A01B7801
:102150008DF80030244B8DF804901B788DF80130F9
:10216000224B8DF805801B788DF802302244002325
:10217000D2438DF806708DF807608DF808308DF821
:1021800009308DF80A308DF80B308DF80C308DF851
:102190000D308DF80E308DF80F200DEB0302E95C49
:1021A00011720133072BF8D16946642310221048BD
:1021B000FFF7F3FE6423102269460E48FFF7EDFE99
:1021C00004B0BDE8F08713F8011B0A44BAE700BF6A
:1021D0000300002002000020010000200000002079
:1021E0008F000020050000208E0000200400002049
:1021F000080100208001002038B50A4C0A4D204615
:10220000FEF7C0FD42F210712046FEF7EBFA2046C1
:10221000FEF736FB80B228802046FEF726FE28888F
:1022200080B238BDA00000208C00002030B587B0FF
:1022300001AD14220021284600F090FA0024FFF797
:10224000DBFF45F8240064200134FEF7D7F9042CA5
:10225000F5D105A82B461A6859688A42C8BF83E899
:10226000060004339842F6D1013CF3D1039807B03D
:1022700030BD00007FB5094A094806238DE80C00EF
:102280007F2200230392694604220293049205935D
:10229000FEF7FAFA07B05DF804FB00BF00018021E9
:1022A000A00000202DE9F041ACB01424442200210C
:1022B00006A800F053FA2246002101A800F04EFAC9
:1022C0000021542217A800F049FAFEF703FF234A21
:1022D000D2F8903023F01803C2F89030002502267F
:1022E0000694602301244FF01008072706A80E93D8
:1022F00008940C940D95109611941294CDF84C807E
:10230000149715961696FEF7C1FF0F2321460193E9
:1023100001A803230293039504950595FFF708FA96
:1023200044F2030317934FF08053299317A84FF0FB
:1023300080731E931F95209518941994CDF868808A
:102340001B971C961D96FFF735FB4FF40070FEF7A8
:10235000D1FEFFF773FC2CB0BDE8F0810010024005
:1023600080B58AB0FEF72CF9FFF79CFF14220021FC
:1023700004A800F0F3F94A4B4A48DA6C4A4D42F09F
:102380000402DA64DA6C02F004020192019ADA6C57
:1023900042F00102DA64DA6C02F001020292029A5F
:1023A000DA6C42F00202DA64DB6C03F00203002212
:1023B0000393082100240126039BFEF785FE0823D2
:1023C00004A938480493059606940794FEF7C8FDBF
:1023D0002146182204A800F0C1F9344AAC604FF439
:1023E00080230427284685E80C00EC602C612C76BD
:1023F0006E76EE6185F82040AC62EC6285F8304084
:102400006C6385F838406F61FEF71CF9284B049324
:10241000062304A9059328467F230694079309946D
:102420000897FEF731FA2348234B84604FF4E136D6
:102430000C2580E84800C460046145618461C46182
:1024400004624462FFF732FE1C481D4B846080E842
:1024500048004FF48073C46004614561C461046244
:1024600044628361FFF722FE164C174E174D00237E
:10247000082004930593FFF7FDFEFFF7D7FE80B217
:1024800020802288294692B204A8326000F06EF9BA
:1024900004A8FFF73DFE40F6B830FEF7AFF8E6E7D8
:1024A0000010024000040048A0000020000004507A
:1024B0000001802108010020003801408001002037
:1024C000004400408C00002004010020D12F0008AF
:1024D0000A4B1A6E42F001021A661A6E82B002F0BE
:1024E00001020092009A9A6D42F080529A659B6DAB
:1024F00003F080530193019B02B07047001002402B
:1025000010B5044688B01422002103A800F026F973
:102510002268124B9A421ED103F17043A3F5F8339F
:1025200003A9DA6C42F40052DA64DA6C02F4005265
:102530000192019ADA6C42F00102DA64DB6C03F07A
:1025400001030293029B082303934FF090400B2357
:102550000493FEF705FD08B010BD00BF0000045055
:1025600030B514228BB0044600210DEB020000F0C0
:10257000F5F82368284A934222D1284B1A6E42F478
:1025800080421A661A6E02F480420192019ADA6C55
:1025900042F00102DA64DB6C03F001030293029B58
:1025A0004FF4C06305930223069303230893072384
:1025B000099305A94FF09040FEF7D2FC0BB030BD57
:1025C000174A9342FAD1154B9A6D42F400329A653C
:1025D0009A6D02F400320392039ADA6C42F001021F
:1025E000DA64DB6C03F001030493049B06230324E9
:1025F00005930225072305A94FF0904009930695FE
:102600000894FEF7ADFC4FF40043059300230695B4
:10261000079308940994CCE7003801400010024069
:10262000004400407047FEE7FEE7FEE7FEE7704724
:1026300070477047FDF7D4BF08B50A4B19680246CA
:1026400009B9094919601868694602448A4206D9DD
:1026500000F05AF80C2303604FF0FF3008BD1A60F9
:1026600008BD00BF90000020FC0100200F49D1F8F8
:10267000883043F47003C1F888300D4B1A6800208D
:1026800042F001021A6098601A6822F0A85222F4FF
:1026900010221A604FF48052DA601A6822F4802205
:1026A0001A6098614FF000638B60704700ED00E0A6
:1026B00000100240DFF834D0002103E00C4B5B58DF
:1026C000435004310B480C4B42189A42F6D30B4A44
:1026D00002E0002342F8043B094B9A42F9D3FFF78A
:1026E000C5FF00F017F8FFF73BFEFEE700000120F2
:1026F00068300008000000207000002070000020FA
:10270000FC010020FEE70000014B1868704700BF85
:102710000C00002070B50D4E0D4CA41BA41000251C
:10272000A54209D10B4E0C4C00F03EFCA41BA4109A
:102730000025A54205D170BD56F8253098470135D2
:10274000EEE756F8253098470135F2E7603000088B
:10275000603000086030000864300008024403461E
:10276000934200D1704703F8011BF9E70EB400B59E
:102770009CB04FF402711DABADF81410029006909E
:102780006FF000410A48049107914FF6FF7153F82A
:10279000042BADF816100068019302A900F066F84A
:1027A000029B00221A701CB05DF804EB03B0704766
:1027B0000C0000202DE9F0478E689E4282460C46B0
:1027C0009146984635D88A8912F4906F31D02568A1
:1027D00009696F1A6569022305EB450595FBF3F559
:1027E00008F101033B449D4238BF1D46530531D5D6
:1027F000294600F039FB064650B90C23CAF80030D0
:10280000A38943F04003A3814FF0FF30BDE8F08778
:102810003A46216900F0B4FAA38923F4906343F0A7
:102820008003A381266165613E44ED1B2660A5609F
:102830004646464528BF464632464946206800F08F
:10284000AAFAA3689B1BA36023681E44266000208D
:10285000BDE8F0872A4600F065FB06460028E1D176
:102860002169504600F0B2FAC7E700002DE9F04FA9
:102870009DB0804603938B891C060D4616460FD5E6
:102880000B696BB9402100F0EFFA2860286128B984
:102890000C23C8F800304FF0FF30C5E040236B61D7
:1028A0000023099320238DF8293030238DF82A3016
:1028B0004FF0010B37463C4614F8013B002B3CD14E
:1028C000B7EB060A0BD05346324629464046FFF77F
:1028D00071FF013000F0A380099B534409933B78BA
:1028E000002B00F09C8000234FF0FF3204930793ED
:1028F000059206938DF853301A930522217850489B
:10290000FDF76EFC671C049BD8B9D90644BF202292
:102910008DF853201A0744BF2B228DF853202278BC
:102920002A2A16D0079A00210A20274601343B782C
:10293000303B092B51D9C9B111E0252BC0D0274616
:10294000B9E73F4A801A0BFA00F0184304903C465E
:10295000D3E7039A111D12680391002A01DB079245
:1029600004E0524243F00203079204933B782E2B7B
:102970000ED17B782A2B07F1010132D1039B1A1D5E
:102980001B680392002BB8BF4FF0FF33023705934B
:102990002C4C397803222046FDF722FC38B1402325
:1029A000001B03FA00F0049B0343049301373978BA
:1029B00025488DF8281006227E1CFDF711FC002802
:1029C00035D0224BFBB9039B073323F007030833B1
:1029D0000393099B4B4409936CE700FB02320121EE
:1029E000A3E70023059318460A240F4601313A78DD
:1029F000303A092A03D9002BCAD00590C8E704FB56
:102A000000200123F1E703AB00932A46104B04A9F1
:102A10004046AFF30080B0F1FF3F8146D9D1AB898A
:102A20005B063FF538AF09981DB0BDE8F08F03ABEA
:102A300000932A46064B04A9404600F081F8EAE7D5
:102A4000243000082A3000082E3000080000000062
:102A5000B52700082DE9F04791461F468A680B69A3
:102A6000DDF820809342B8BF1346C9F8003091F8D2
:102A7000432006460C4612B10133C9F800302368E2
:102A8000990642BFD9F800300233C9F800302568F2
:102A900015F0060507D104F1190AE368D9F80020FA
:102AA0009B1A9D4229DB94F843302268003318BFFB
:102AB000012392062ED404F1430239463046C04722
:102AC000013021D02368E568D9F8002003F006031F
:102AD000042B08BFAD1AA36822690CBF25EAE5756F
:102AE00000259342C4BF9B1AED184FF000091A3419
:102AF0004D451BD10020BDE8F087012352463946E1
:102B00003046C047013003D14FF0FF30BDE8F087B9
:102B10000135C2E7E1185A1C302081F843002244F5
:102B200094F8451082F843100233C4E7012322468B
:102B300039463046C0470130E6D009F10109D7E7F0
:102B40002DE9F04317460A7E85B06E2A9846064660
:102B50000C460C9B01F1430E00F0BC801AD8632A8E
:102B60002ED00AD8002A00F0C880582A00F08A80A7
:102B700004F1420584F842202AE0642A01D0692A3F
:102B8000F6D121681A6811F0800F23D0111D196049
:102B9000136827E0732A00F0B48008D86F2A2AD07F
:102BA000702AE5D10A6842F020020A6003E0752A23
:102BB00021D0782ADCD1782284F845206E4964E05F
:102BC0001A6801F14205111D1960136884F842303A
:102BD0000123A3E011F0400F02F104011960D7D0E6
:102BE000B2F90030002B03DA2D225B4284F8432037
:102BF00062490A2217E02068196810F0800F03D09C
:102C0000081D18600B6806E010F0400F01F1040089
:102C10001860F7D00B8859496F2A14BF0A2208227E
:102C2000002084F843006568A560002DC0F29C80F8
:102C3000206820F004002060002B3FD1002D40F0E0
:102C400095807546082A0BD12368DA0708D52369D1
:102C500062689A42DEBF302305F8013C05F1FF357A
:102C6000AEEB05032361CDF800803B4603AA214665
:102C70003046FFF7EFFE013055D14FF0FF3005B081
:102C8000BDE8F08381F845203C492268186812F0BD
:102C9000800F00F104051D6001D0036802E05506B5
:102CA000FBD50388D00744BF42F0200222601BB945
:102CB000226822F0200222601022B1E77546B3FBA1
:102CC000F2F002FB1033CB5C05F8013D034600280F
:102CD000F5D1B7E708681A68496910F0800F04D089
:102CE000101D18601368196007E010F0400F02F122
:102CF000040018601368F6D019800023236175461C
:102D0000B1E71A68111D196015686268002128462C
:102D1000FDF766FA08B1401B606063682361002319
:102D200084F843309FE723692A4639463046C04736
:102D30000130A2D023689B0707D5002504F11909AB
:102D4000E368039A9B1A9D4205DBE068039B984267
:102D5000B8BF184693E701234A4639463046C04774
:102D600001308AD00135EBE7002BA7D10B7884F82E
:102D7000423004F1420565E746300008353000086E
:102D800010B5431E0A44914200D110BD11F8014B09
:102D900003F8014FF7E7884210B501EB020303D8AF
:102DA000421E99420CD110BD9842F9D28118D21A14
:102DB000D34200D110BD13F8014D01F8014DF7E7E2
:102DC00011F8014B02F8014FEBE7000038B505465A
:102DD000002945D051F8043C0C1F002BB8BFE41863
:102DE00000F0D6F81F4A1368104633B963601460C8
:102DF0002846BDE8384000F0CCB8A3420CD9216881
:102E00006218934204BF1A685B68636004BF52187B
:102E100022600460ECE713465A680AB1A242FAD96C
:102E200019685818A0420BD12068014458188242F2
:102E30001960DDD1106852685A6001441960D7E703
:102E400002D90C232B60D3E7206821188A4204BFE3
:102E500011685268626004BF091821605C60C7E7AE
:102E600038BD00BF9400002070B5CD1C25F00305CF
:102E700008350C2D38BF0C25002D064601DBA94274
:102E800003D90C233360002070BD00F081F8234A81
:102E90001468214691B9224C23681BB9304600F0D2
:102EA00067F820602946304600F062F8431C26D1BE
:102EB0000C233360304600F06CF8E4E70B685B1BD2
:102EC0001AD40B2B0FD90B60CD50CC18304600F024
:102ED00060F804F10B00231D20F00700C31A1BD07B
:102EE0005A42E25070BD8C420DBF63684B6863600C
:102EF000136018BF0C46E9E70C464968CAE7C41CD2
:102F000024F00304A04205D0211A304600F030F826
:102F10000130CDD02560D9E770BD00BF94000020FE
:102F200098000020F8B5074614460E4621B9114610
:102F3000BDE8F840FFF798BF22B9FFF747FF2546E5
:102F40002846F8BD00F026F884420FD921463846BD
:102F5000FFF78AFF05460028F2D031462246FFF7E8
:102F60000FFF31463846FFF731FFE9E73546E7E71F
:102F700038B5064C0023054608462360FFF75CFB86
:102F8000431C02D1236803B12B6038BDF801002037
:102F90007047704751F8040C0028A0F10400BCBF32
:102FA0000B58C01870470000F8B500BFF8BC08BC4B
:102FB0009E467047F8B500BFF8BC08BC9E467047F7
:102FC000010402080010101004101010021010105C
:102FD000082564004C75783A2000000000000000CD
:102FE00000000102030406070809000000000102B6
:102FF00003040000A0860100400D0300801A0600B3
:1030000000350C0040420F0080841E0000093D0086
:1030100000127A000024F40000366E010048E80136
:10302000006CDC02232D302B2000686C4C006566A0
:103030006745464700303132333435363738394109
:10304000424344454600303132333435363738391F
:08305000616263646566000023
:0830580058D2FF7F01000000C7
:04306000B5010008AE
:0430640091010008CE
:1030680001AB01010C7E000000093D0010000020AA
:103078000000000000000000000000000000000048
:103088000000000000000000000000000000000038
:103098000000000000000000000000000000000028
:1030A8000000000000000000000000000000000018
:1030B8000000000000000000000000000000000008
:1030C80000000000000000000000000000000000F8
:04000005080026B514
:00000001FF
